{
    "contractName": "FlightSuretyApp",
    "abi": [
        {
            "inputs": [
                {
                    "internalType": "address payable",
                    "name": "dataContract",
                    "type": "address"
                }
            ],
            "stateMutability": "nonpayable",
            "type": "constructor"
        },
        {
            "anonymous": false,
            "inputs": [
                {
                    "indexed": false,
                    "internalType": "address",
                    "name": "airline",
                    "type": "address"
                }
            ],
            "name": "AirlineRegistered",
            "type": "event"
        },
        {
            "anonymous": false,
            "inputs": [
                {
                    "indexed": false,
                    "internalType": "string",
                    "name": "flight",
                    "type": "string"
                },
                {
                    "indexed": false,
                    "internalType": "uint256",
                    "name": "timestamp",
                    "type": "uint256"
                },
                {
                    "indexed": false,
                    "internalType": "address",
                    "name": "airline",
                    "type": "address"
                }
            ],
            "name": "FlightRegistered",
            "type": "event"
        },
        {
            "anonymous": false,
            "inputs": [
                {
                    "indexed": false,
                    "internalType": "address",
                    "name": "airline",
                    "type": "address"
                },
                {
                    "indexed": false,
                    "internalType": "string",
                    "name": "flight",
                    "type": "string"
                },
                {
                    "indexed": false,
                    "internalType": "uint256",
                    "name": "timestamp",
                    "type": "uint256"
                },
                {
                    "indexed": false,
                    "internalType": "uint8",
                    "name": "status",
                    "type": "uint8"
                }
            ],
            "name": "FlightStatusInfo",
            "type": "event"
        },
        {
            "anonymous": false,
            "inputs": [
                {
                    "indexed": false,
                    "internalType": "string",
                    "name": "flight",
                    "type": "string"
                },
                {
                    "indexed": false,
                    "internalType": "uint256",
                    "name": "timestamp",
                    "type": "uint256"
                },
                {
                    "indexed": false,
                    "internalType": "address",
                    "name": "passenger",
                    "type": "address"
                }
            ],
            "name": "InsuranceBought",
            "type": "event"
        },
        {
            "anonymous": false,
            "inputs": [
                {
                    "indexed": false,
                    "internalType": "uint8[3]",
                    "name": "indexes",
                    "type": "uint8[3]"
                }
            ],
            "name": "OracleRegistered",
            "type": "event"
        },
        {
            "anonymous": false,
            "inputs": [
                {
                    "indexed": false,
                    "internalType": "address",
                    "name": "airline",
                    "type": "address"
                },
                {
                    "indexed": false,
                    "internalType": "string",
                    "name": "flight",
                    "type": "string"
                },
                {
                    "indexed": false,
                    "internalType": "uint256",
                    "name": "timestamp",
                    "type": "uint256"
                },
                {
                    "indexed": false,
                    "internalType": "uint8",
                    "name": "status",
                    "type": "uint8"
                }
            ],
            "name": "OracleReport",
            "type": "event"
        },
        {
            "anonymous": false,
            "inputs": [
                {
                    "indexed": false,
                    "internalType": "uint8",
                    "name": "index",
                    "type": "uint8"
                },
                {
                    "indexed": false,
                    "internalType": "address",
                    "name": "airline",
                    "type": "address"
                },
                {
                    "indexed": false,
                    "internalType": "string",
                    "name": "flight",
                    "type": "string"
                },
                {
                    "indexed": false,
                    "internalType": "uint256",
                    "name": "timestamp",
                    "type": "uint256"
                }
            ],
            "name": "OracleRequest",
            "type": "event"
        },
        {
            "inputs": [],
            "name": "REGISTRATION_FEE",
            "outputs": [
                {
                    "internalType": "uint256",
                    "name": "",
                    "type": "uint256"
                }
            ],
            "stateMutability": "view",
            "type": "function",
            "constant": true
        },
        {
            "inputs": [],
            "name": "isOperational",
            "outputs": [
                {
                    "internalType": "bool",
                    "name": "",
                    "type": "bool"
                }
            ],
            "stateMutability": "view",
            "type": "function",
            "constant": true
        },
        {
            "inputs": [],
            "name": "isContractOwner",
            "outputs": [
                {
                    "internalType": "bool",
                    "name": "",
                    "type": "bool"
                }
            ],
            "stateMutability": "view",
            "type": "function",
            "constant": true
        },
        {
            "inputs": [
                {
                    "internalType": "address",
                    "name": "airline",
                    "type": "address"
                },
                {
                    "internalType": "string",
                    "name": "name",
                    "type": "string"
                }
            ],
            "name": "registerAirline",
            "outputs": [
                {
                    "internalType": "bool",
                    "name": "success",
                    "type": "bool"
                },
                {
                    "internalType": "uint256",
                    "name": "votes",
                    "type": "uint256"
                }
            ],
            "stateMutability": "nonpayable",
            "type": "function"
        },
        {
            "inputs": [
                {
                    "internalType": "string",
                    "name": "flight",
                    "type": "string"
                },
                {
                    "internalType": "uint256",
                    "name": "timestamp",
                    "type": "uint256"
                }
            ],
            "name": "registerFlight",
            "outputs": [],
            "stateMutability": "nonpayable",
            "type": "function"
        },
        {
            "inputs": [
                {
                    "internalType": "address",
                    "name": "airline",
                    "type": "address"
                },
                {
                    "internalType": "string",
                    "name": "flight",
                    "type": "string"
                },
                {
                    "internalType": "uint256",
                    "name": "timestamp",
                    "type": "uint256"
                }
            ],
            "name": "fetchFlightStatus",
            "outputs": [],
            "stateMutability": "nonpayable",
            "type": "function"
        },
        {
            "inputs": [
                {
                    "internalType": "address",
                    "name": "airline",
                    "type": "address"
                },
                {
                    "internalType": "string",
                    "name": "flight",
                    "type": "string"
                },
                {
                    "internalType": "uint256",
                    "name": "timestamp",
                    "type": "uint256"
                }
            ],
            "name": "buyInsurance",
            "outputs": [],
            "stateMutability": "payable",
            "type": "function",
            "payable": true
        },
        {
            "inputs": [],
            "name": "registerOracle",
            "outputs": [],
            "stateMutability": "payable",
            "type": "function",
            "payable": true
        },
        {
            "inputs": [],
            "name": "getMyIndexes",
            "outputs": [
                {
                    "internalType": "uint8[3]",
                    "name": "",
                    "type": "uint8[3]"
                }
            ],
            "stateMutability": "view",
            "type": "function",
            "constant": true
        },
        {
            "inputs": [
                {
                    "internalType": "uint8",
                    "name": "index",
                    "type": "uint8"
                },
                {
                    "internalType": "address",
                    "name": "airline",
                    "type": "address"
                },
                {
                    "internalType": "string",
                    "name": "flight",
                    "type": "string"
                },
                {
                    "internalType": "uint256",
                    "name": "timestamp",
                    "type": "uint256"
                },
                {
                    "internalType": "uint8",
                    "name": "statusCode",
                    "type": "uint8"
                }
            ],
            "name": "submitOracleResponse",
            "outputs": [],
            "stateMutability": "nonpayable",
            "type": "function"
        }
    ],
    "bytecode": "0x608060405260046001556000600560006101000a81548160ff021916908360ff16021790555034801561003157600080fd5b506040516128533803806128538339818101604052602081101561005457600080fd5b810190808051906020019092919050505033600260006101000a81548173ffffffffffffffffffffffffffffffffffffffff021916908373ffffffffffffffffffffffffffffffffffffffff160217905550806000806101000a81548173ffffffffffffffffffffffffffffffffffffffff021916908373ffffffffffffffffffffffffffffffffffffffff1602179055505061275d806100f66000396000f3fe6080604052600436106100915760003560e01c80637f7dcdbf116100595780637f7dcdbf146102d5578063c10f270014610302578063cd905dff1461040e578063ee38a7491461043b578063f83f11c01461054057610091565b80632f6721d014610096578063339d25901461017b57806339cfc995146101855780635f1cc0e61461025757806364b4f751146102aa575b600080fd5b610179600480360360608110156100ac57600080fd5b81019080803573ffffffffffffffffffffffffffffffffffffffff169060200190929190803590602001906401000000008111156100e957600080fd5b8201836020820111156100fb57600080fd5b8035906020019184600183028401116401000000008311171561011d57600080fd5b91908080601f016020809104026020016040519081016040528093929190818152602001838380828437600081840152601f19601f82011690508083019250505050505050919291929080359060200190929190505050610632565b005b6101836108d7565b005b34801561019157600080fd5b50610255600480360360408110156101a857600080fd5b81019080803590602001906401000000008111156101c557600080fd5b8201836020820111156101d757600080fd5b803590602001918460018302840111640100000000831117156101f957600080fd5b91908080601f016020809104026020016040519081016040528093929190818152602001838380828437600081840152601f19601f82011690508083019250505050505050919291929080359060200190929190505050610a5c565b005b34801561026357600080fd5b5061026c610cae565b6040518082600360200280838360005b8381101561029757808201518184015260208101905061027c565b5050505090500191505060405180910390f35b3480156102b657600080fd5b506102bf610e21565b6040518082815260200191505060405180910390f35b3480156102e157600080fd5b506102ea610e2d565b60405180821515815260200191505060405180910390f35b34801561030e57600080fd5b5061040c600480360360a081101561032557600080fd5b81019080803560ff169060200190929190803573ffffffffffffffffffffffffffffffffffffffff1690602001909291908035906020019064010000000081111561036f57600080fd5b82018360208201111561038157600080fd5b803590602001918460018302840111640100000000831117156103a357600080fd5b91908080601f016020809104026020016040519081016040528093929190818152602001838380828437600081840152601f19601f82011690508083019250505050505050919291929080359060200190929190803560ff169060200190929190505050610e85565b005b34801561041a57600080fd5b506104236113f7565b60405180821515815260200191505060405180910390f35b34801561044757600080fd5b506105216004803603604081101561045e57600080fd5b81019080803573ffffffffffffffffffffffffffffffffffffffff1690602001909291908035906020019064010000000081111561049b57600080fd5b8201836020820111156104ad57600080fd5b803590602001918460018302840111640100000000831117156104cf57600080fd5b91908080601f016020809104026020016040519081016040528093929190818152602001838380828437600081840152601f19601f8201169050808301925050505050505091929192905050506114a0565b6040518083151581526020018281526020019250505060405180910390f35b34801561054c57600080fd5b506106306004803603606081101561056357600080fd5b81019080803573ffffffffffffffffffffffffffffffffffffffff169060200190929190803590602001906401000000008111156105a057600080fd5b8201836020820111156105b257600080fd5b803590602001918460018302840111640100000000831117156105d457600080fd5b91908080601f016020809104026020016040519081016040528093929190818152602001838380828437600081840152601f19601f82011690508083019250505050505050919291929080359060200190929190505050611c4e565b005b8282826000610642848484611f6b565b905060008054906101000a900473ffffffffffffffffffffffffffffffffffffffff1673ffffffffffffffffffffffffffffffffffffffff1663a7c8c06c826040518263ffffffff1660e01b81526004018082815260200191505060206040518083038186803b1580156106b557600080fd5b505afa1580156106c9573d6000803e3d6000fd5b505050506040513d60208110156106df57600080fd5b8101908080519060200190929190505050610745576040517f08c379a00000000000000000000000000000000000000000000000000000000081526004018080602001828103825260298152602001806126ff6029913960400191505060405180910390fd5b60003390506000610757898989611f6b565b905060008054906101000a900473ffffffffffffffffffffffffffffffffffffffff1673ffffffffffffffffffffffffffffffffffffffff16634f829e378383346040518463ffffffff1660e01b8152600401808473ffffffffffffffffffffffffffffffffffffffff1681526020018381526020018281526020019350505050600060405180830381600087803b1580156107f257600080fd5b505af1158015610806573d6000803e3d6000fd5b505050507fd8dffa35a859c9fd97b7b51c039969a484f8932fe66dc83f32ca22e01a097b7788888460405180806020018481526020018373ffffffffffffffffffffffffffffffffffffffff168152602001828103825285818151815260200191508051906020019080838360005b83811015610890578082015181840152602081019050610875565b50505050905090810190601f1680156108bd5780820380516001836020036101000a031916815260200191505b5094505050505060405180910390a1505050505050505050565b670de0b6b3a7640000341015610955576040517f08c379a000000000000000000000000000000000000000000000000000000000815260040180806020018281038252601c8152602001807f526567697374726174696f6e206665652069732072657175697265640000000081525060200191505060405180910390fd5b61095d6125d3565b61096633612011565b9050604051806040016040528060011515815260200182815250600660003373ffffffffffffffffffffffffffffffffffffffff1673ffffffffffffffffffffffffffffffffffffffff16815260200190815260200160002060008201518160000160006101000a81548160ff0219169083151502179055506020820151816001019060036109f69291906125f5565b509050507f1baac8ba2b567b9999e2c2d7cdf890b818e8e8b70c67dbde09c32cffbfb1660e816040518082600360200280838360005b83811015610a47578082015181840152602081019050610a2c565b5050505090500191505060405180910390a150565b60008054906101000a900473ffffffffffffffffffffffffffffffffffffffff1673ffffffffffffffffffffffffffffffffffffffff1663f3ba4e1b336040518263ffffffff1660e01b8152600401808273ffffffffffffffffffffffffffffffffffffffff16815260200191505060206040518083038186803b158015610ae357600080fd5b505afa158015610af7573d6000803e3d6000fd5b505050506040513d6020811015610b0d57600080fd5b8101908080519060200190929190505050610b2757600080fd5b6000610b34338484611f6b565b905060008054906101000a900473ffffffffffffffffffffffffffffffffffffffff1673ffffffffffffffffffffffffffffffffffffffff1663eaae3cc08284336040518463ffffffff1660e01b8152600401808481526020018381526020018273ffffffffffffffffffffffffffffffffffffffff1681526020019350505050600060405180830381600087803b158015610bcf57600080fd5b505af1158015610be3573d6000803e3d6000fd5b505050507f7e9c226ac5d85c5e088472aea4786ad32703535448a2c13a5963ff836b91551f83833360405180806020018481526020018373ffffffffffffffffffffffffffffffffffffffff168152602001828103825285818151815260200191508051906020019080838360005b83811015610c6d578082015181840152602081019050610c52565b50505050905090810190601f168015610c9a5780820380516001836020036101000a031916815260200191505b5094505050505060405180910390a1505050565b610cb66125d3565b600660003373ffffffffffffffffffffffffffffffffffffffff1673ffffffffffffffffffffffffffffffffffffffff16815260200190815260200160002060000160009054906101000a900460ff16610d78576040517f08c379a000000000000000000000000000000000000000000000000000000000815260040180806020018281038252601b8152602001807f4e6f74207265676973746572656420617320616e206f7261636c65000000000081525060200191505060405180910390fd5b600660003373ffffffffffffffffffffffffffffffffffffffff1673ffffffffffffffffffffffffffffffffffffffff168152602001908152602001600020600101600380602002604051908101604052809291908260038015610e17576020028201916000905b82829054906101000a900460ff1660ff1681526020019060010190602082600001049283019260010382029150808411610de05790505b5050505050905090565b670de0b6b3a764000081565b60003373ffffffffffffffffffffffffffffffffffffffff16600260009054906101000a900473ffffffffffffffffffffffffffffffffffffffff1673ffffffffffffffffffffffffffffffffffffffff1614905090565b8460ff16600660003373ffffffffffffffffffffffffffffffffffffffff1673ffffffffffffffffffffffffffffffffffffffff168152602001908152602001600020600101600060038110610ed757fe5b602091828204019190069054906101000a900460ff1660ff161480610f6457508460ff16600660003373ffffffffffffffffffffffffffffffffffffffff1673ffffffffffffffffffffffffffffffffffffffff168152602001908152602001600020600101600160038110610f4957fe5b602091828204019190069054906101000a900460ff1660ff16145b80610fd757508460ff16600660003373ffffffffffffffffffffffffffffffffffffffff1673ffffffffffffffffffffffffffffffffffffffff168152602001908152602001600020600101600260038110610fbc57fe5b602091828204019190069054906101000a900460ff1660ff16145b61102c576040517f08c379a00000000000000000000000000000000000000000000000000000000081526004018080602001828103825260238152602001806126dc6023913960400191505060405180910390fd5b600085858585604051602001808560ff1660f81b81526001018473ffffffffffffffffffffffffffffffffffffffff1660601b815260140183805190602001908083835b602083106110935780518252602082019150602081019050602083039250611070565b6001836020036101000a0380198251168184511680821785525050505050509050018281526020019450505050506040516020818303038152906040528051906020012090506007600082815260200190815260200160002060000160149054906101000a900460ff16611152576040517f08c379a000000000000000000000000000000000000000000000000000000000815260040180806020018281038252602f8152602001806126ad602f913960400191505060405180910390fd5b6007600082815260200190815260200160002060010160008360ff1660ff168152602001908152602001600020339080600181540180825580915050600190039060005260206000200160009091909190916101000a81548173ffffffffffffffffffffffffffffffffffffffff021916908373ffffffffffffffffffffffffffffffffffffffff1602179055507f43c853095c2752648493c88b4baac4d580d2594ffb00c6f1d4242d844514f78385858585604051808573ffffffffffffffffffffffffffffffffffffffff168152602001806020018481526020018360ff168152602001828103825285818151815260200191508051906020019080838360005b83811015611270578082015181840152602081019050611255565b50505050905090810190601f16801561129d5780820380516001836020036101000a031916815260200191505b509550505050505060405180910390a160036007600083815260200190815260200160002060010160008460ff1660ff16815260200190815260200160002080549050106113ef5760006007600083815260200190815260200160002060000160146101000a81548160ff0219169083151502179055507fe23f5229de535c091e3b7bec2665f5d698192d3b31393066e8987b7a05076b6c85858585604051808573ffffffffffffffffffffffffffffffffffffffff168152602001806020018481526020018360ff168152602001828103825285818151815260200191508051906020019080838360005b838110156113a4578082015181840152602081019050611389565b50505050905090810190601f1680156113d15780820380516001836020036101000a031916815260200191505b509550505050505060405180910390a16113ed8585858561219d565b505b505050505050565b60008060009054906101000a900473ffffffffffffffffffffffffffffffffffffffff1673ffffffffffffffffffffffffffffffffffffffff1663cd905dff6040518163ffffffff1660e01b815260040160206040518083038186803b15801561146057600080fd5b505afa158015611474573d6000803e3d6000fd5b505050506040513d602081101561148a57600080fd5b8101908080519060200190929190505050905090565b60008060008054906101000a900473ffffffffffffffffffffffffffffffffffffffff1673ffffffffffffffffffffffffffffffffffffffff1663a78d9799336040518263ffffffff1660e01b8152600401808273ffffffffffffffffffffffffffffffffffffffff16815260200191505060206040518083038186803b15801561152a57600080fd5b505afa15801561153e573d6000803e3d6000fd5b505050506040513d602081101561155457600080fd5b81019080805190602001909291905050506115b2576040517f08c379a0000000000000000000000000000000000000000000000000000000008152600401808060200182810382526000815260200160200191505060405180910390fd5b60008054906101000a900473ffffffffffffffffffffffffffffffffffffffff1673ffffffffffffffffffffffffffffffffffffffff1663f3ba4e1b336040518263ffffffff1660e01b8152600401808273ffffffffffffffffffffffffffffffffffffffff16815260200191505060206040518083038186803b15801561163957600080fd5b505afa15801561164d573d6000803e3d6000fd5b505050506040513d602081101561166357600080fd5b810190808051906020019092919050505061167d57600080fd5b60001515600460008673ffffffffffffffffffffffffffffffffffffffff1673ffffffffffffffffffffffffffffffffffffffff16815260200190815260200160002060003373ffffffffffffffffffffffffffffffffffffffff1673ffffffffffffffffffffffffffffffffffffffff16815260200190815260200160002060009054906101000a900460ff16151514611780576040517f08c379a00000000000000000000000000000000000000000000000000000000081526004018080602001828103825260158152602001807f4169726c696e6520616c726561647920766f746564000000000000000000000081525060200191505060405180910390fd5b600090506000915060008060009054906101000a900473ffffffffffffffffffffffffffffffffffffffff1673ffffffffffffffffffffffffffffffffffffffff1663ff2d04e26040518163ffffffff1660e01b815260040160206040518083038186803b1580156117f157600080fd5b505afa158015611805573d6000803e3d6000fd5b505050506040513d602081101561181b57600080fd5b81019080805190602001909291905050509050600154811161196c5760008054906101000a900473ffffffffffffffffffffffffffffffffffffffff1673ffffffffffffffffffffffffffffffffffffffff16633010f50f3387876040518463ffffffff1660e01b8152600401808473ffffffffffffffffffffffffffffffffffffffff1681526020018373ffffffffffffffffffffffffffffffffffffffff16815260200180602001828103825283818151815260200191508051906020019080838360005b838110156118fd5780820151818401526020810190506118e2565b50505050905090810190601f16801561192a5780820380516001836020036101000a031916815260200191505b50945050505050600060405180830381600087803b15801561194b57600080fd5b505af115801561195f573d6000803e3d6000fd5b5050505060019250611beb565b6001600460008773ffffffffffffffffffffffffffffffffffffffff1673ffffffffffffffffffffffffffffffffffffffff16815260200190815260200160002060003373ffffffffffffffffffffffffffffffffffffffff1673ffffffffffffffffffffffffffffffffffffffff16815260200190815260200160002060006101000a81548160ff021916908315150217905550611a546001600360008873ffffffffffffffffffffffffffffffffffffffff1673ffffffffffffffffffffffffffffffffffffffff1681526020019081526020016000205461236190919063ffffffff16565b9150611a6a6002826123e990919063ffffffff16565b8211611ab95781600360008773ffffffffffffffffffffffffffffffffffffffff1673ffffffffffffffffffffffffffffffffffffffff16815260200190815260200160002081905550611bea565b60008054906101000a900473ffffffffffffffffffffffffffffffffffffffff1673ffffffffffffffffffffffffffffffffffffffff16633010f50f3387876040518463ffffffff1660e01b8152600401808473ffffffffffffffffffffffffffffffffffffffff1681526020018373ffffffffffffffffffffffffffffffffffffffff16815260200180602001828103825283818151815260200191508051906020019080838360005b83811015611b7f578082015181840152602081019050611b64565b50505050905090810190601f168015611bac5780820380516001836020036101000a031916815260200191505b50945050505050600060405180830381600087803b158015611bcd57600080fd5b505af1158015611be1573d6000803e3d6000fd5b50505050600192505b5b8215611c3f577f89a6354fb229eda6cbc28306798727b4d524818d2c375220bc3f360f24cffaca85604051808273ffffffffffffffffffffffffffffffffffffffff16815260200191505060405180910390a15b82600092509250509250929050565b8282826000611c5e848484611f6b565b905060008054906101000a900473ffffffffffffffffffffffffffffffffffffffff1673ffffffffffffffffffffffffffffffffffffffff1663a7c8c06c826040518263ffffffff1660e01b81526004018082815260200191505060206040518083038186803b158015611cd157600080fd5b505afa158015611ce5573d6000803e3d6000fd5b505050506040513d6020811015611cfb57600080fd5b8101908080519060200190929190505050611d61576040517f08c379a00000000000000000000000000000000000000000000000000000000081526004018080602001828103825260298152602001806126ff6029913960400191505060405180910390fd5b6000611d6c33612433565b9050600081898989604051602001808560ff1660f81b81526001018473ffffffffffffffffffffffffffffffffffffffff1660601b815260140183805190602001908083835b60208310611dd55780518252602082019150602081019050602083039250611db2565b6001836020036101000a0380198251168184511680821785525050505050509050018281526020019450505050506040516020818303038152906040528051906020012090506000600760008381526020019081526020016000209050338160000160006101000a81548173ffffffffffffffffffffffffffffffffffffffff021916908373ffffffffffffffffffffffffffffffffffffffff16021790555060018160000160146101000a81548160ff0219169083151502179055507f3ed01f2c3fc24c6b329d931e35b03e390d23497d22b3f90e15b600343e93df11838b8b8b604051808560ff1681526020018473ffffffffffffffffffffffffffffffffffffffff16815260200180602001838152602001828103825284818151815260200191508051906020019080838360005b83811015611f22578082015181840152602081019050611f07565b50505050905090810190601f168015611f4f5780820380516001836020036101000a031916815260200191505b509550505050505060405180910390a150505050505050505050565b6000838383604051602001808473ffffffffffffffffffffffffffffffffffffffff1660601b815260140183805190602001908083835b60208310611fc55780518252602082019150602081019050602083039250611fa2565b6001836020036101000a03801982511681845116808217855250505050505090500182815260200193505050506040516020818303038152906040528051906020012090509392505050565b6120196125d3565b6120216125d3565b61202a83612433565b8160006003811061203757fe5b602002019060ff16908160ff16815250508060006003811061205557fe5b60200201518160016003811061206757fe5b602002019060ff16908160ff16815250505b8060006003811061208657fe5b602002015160ff168160016003811061209b57fe5b602002015160ff1614156120d5576120b283612433565b816001600381106120bf57fe5b602002019060ff16908160ff1681525050612079565b806001600381106120e257fe5b6020020151816002600381106120f457fe5b602002019060ff16908160ff16815250505b8060006003811061211357fe5b602002015160ff168160026003811061212857fe5b602002015160ff16148061216357508060016003811061214457fe5b602002015160ff168160026003811061215957fe5b602002015160ff16145b156121945761217183612433565b8160026003811061217e57fe5b602002019060ff16908160ff1681525050612106565b80915050919050565b600084848460006121af848484611f6b565b905060008054906101000a900473ffffffffffffffffffffffffffffffffffffffff1673ffffffffffffffffffffffffffffffffffffffff1663a7c8c06c826040518263ffffffff1660e01b81526004018082815260200191505060206040518083038186803b15801561222257600080fd5b505afa158015612236573d6000803e3d6000fd5b505050506040513d602081101561224c57600080fd5b81019080805190602001909291905050506122b2576040517f08c379a00000000000000000000000000000000000000000000000000000000081526004018080602001828103825260298152602001806126ff6029913960400191505060405180910390fd5b6122bd898989611f6b565b945060008054906101000a900473ffffffffffffffffffffffffffffffffffffffff1673ffffffffffffffffffffffffffffffffffffffff16635ff13d6186886040518363ffffffff1660e01b8152600401808381526020018260ff16815260200192505050600060405180830381600087803b15801561233d57600080fd5b505af1158015612351573d6000803e3d6000fd5b5050505050505050949350505050565b6000808284019050838110156123df576040517f08c379a000000000000000000000000000000000000000000000000000000000815260040180806020018281038252601b8152602001807f536166654d6174683a206164646974696f6e206f766572666c6f77000000000081525060200191505060405180910390fd5b8091505092915050565b600061242b83836040518060400160405280601a81526020017f536166654d6174683a206469766973696f6e206279207a65726f00000000000081525061250d565b905092915050565b600080600a905060008160ff166005600081819054906101000a900460ff168092919060010191906101000a81548160ff021916908360ff16021790555060ff1643034085604051602001808381526020018273ffffffffffffffffffffffffffffffffffffffff1660601b8152601401925050506040516020818303038152906040528051906020012060001c816124c857fe5b06905060fa600560009054906101000a900460ff1660ff161115612503576000600560006101000a81548160ff021916908360ff1602179055505b8092505050919050565b600080831182906125b9576040517f08c379a00000000000000000000000000000000000000000000000000000000081526004018080602001828103825283818151815260200191508051906020019080838360005b8381101561257e578082015181840152602081019050612563565b50505050905090810190601f1680156125ab5780820380516001836020036101000a031916815260200191505b509250505060405180910390fd5b5060008385816125c557fe5b049050809150509392505050565b6040518060600160405280600390602082028036833780820191505090505090565b826003601f0160209004810192821561267e5791602002820160005b8382111561264f57835183826101000a81548160ff021916908360ff1602179055509260200192600101602081600001049283019260010302612611565b801561267c5782816101000a81549060ff021916905560010160208160000104928301926001030261264f565b505b50905061268b919061268f565b5090565b5b808211156126a8576000816000905550600101612690565b509056fe466c69676874206f722074696d657374616d7020646f206e6f74206d61746368206f7261636c652072657175657374496e64657820646f6573206e6f74206d61746368206f7261636c652072657175657374466c6967687420646f6573206e6f74206578697374732028666f722074686973206169726c696e6529a2646970667358221220e32a1207c6225e890ff0a44d7cea1ee9ced335fc95bb14257d91510385a77df864736f6c63430007040033",
    "immutableReferences": {},
    "source": "// SPDX-License-Identifier: MIT\npragma solidity ^0.7.4;\n\n// It's important to avoid vulnerabilities due to numeric overflow bugs\n// OpenZeppelin's SafeMath library, when used correctly, protects agains such bugs\n// More info: https://www.nccgroup.trust/us/about-us/newsroom-and-events/blog/2018/november/smart-contract-insecurity-bad-arithmetic/\n\nimport \"../node_modules/openzeppelin-solidity/contracts/math/SafeMath.sol\";\n\nimport \"./FlightSuretyData.sol\";\n\n/************************************************** */\n/* FlightSurety Smart Contract                      */\n/************************************************** */\ncontract FlightSuretyApp {\n    using SafeMath for uint256; // Allow SafeMath functions to be called for all uint256 types (similar to \"prototype\" in Javascript)\n\n    FlightSuretyData flightSuretyData;\n    /********************************************************************************************/\n    /* DATA VARIABLES\n    /********************************************************************************************/\n\n    uint256 MULTIPARTY_CONSENSUS_THRESHOLD = 4;\n\n    address private contractOwner; // Account used to deploy contract\n\n    mapping(address => uint256) airlineQueueVotes;\n    mapping(address => mapping(address => bool)) airlineQueue;\n\n    /********************************************************************************************/\n    /* EVENTS\n    /********************************************************************************************/\n\n    event AirlineRegistered(address airline);\n\n    event FlightRegistered(string flight, uint256 timestamp, address airline);\n\n    event InsuranceBought(string flight, uint256 timestamp, address passenger);\n\n    /********************************************************************************************/\n    /* CONSTRUCTOR\n    /********************************************************************************************/\n\n    /**\n     * @dev Contract constructor\n     */\n    constructor(address payable dataContract) {\n        contractOwner = msg.sender;\n        flightSuretyData = FlightSuretyData(dataContract);\n    }\n\n    /********************************************************************************************/\n    /* MODIFIERS\n    /********************************************************************************************/\n\n    /**\n     * @dev Modifier that requires the \"operational\" boolean variable to be \"true\"\n     *      This is used on all state changing functions to pause the contract in\n     *      the event there is an issue that needs to be fixed\n     */\n    modifier requireIsOperational() {\n        require(true, \"Contract is currently not operational\");\n        _;\n    }\n\n    /**\n     * @dev Modifier that requires the \"ContractOwner\" account to be the function caller\n     */\n    modifier requireContractOwner() {\n        require(msg.sender == contractOwner, \"Caller is not contract owner\");\n        _;\n    }\n\n    /**\n     * @dev ...\n     */\n    modifier isRegisteredAirline() {\n        require(flightSuretyData.isRegisteredAirline(msg.sender), \"\");\n        _;\n    }\n\n    /**\n     * @dev ...\n     */\n    modifier requireFundedAirline() {\n        require(flightSuretyData.isFundedAirline(msg.sender));\n        _;\n    }\n\n    /**\n     * @dev Modifier that requires that this flight exists\n     */\n    modifier requireExistingFlight(\n        address airline,\n        string memory flight,\n        uint256 timestamp\n    ) {\n        bytes32 flightKey = getFlightKey(airline, flight, timestamp);\n\n        require(\n            flightSuretyData.isExistingFlight(flightKey),\n            \"Flight does not exists (for this airline)\"\n        );\n        _;\n    }\n\n    /********************************************************************************************/\n    /* UTILITY FUNCTIONS\n    /********************************************************************************************/\n\n    function isOperational() public view returns (bool) {\n        return flightSuretyData.isOperational(); // Modify to call data contract's status\n    }\n\n    function isContractOwner() public view returns (bool) {\n        return contractOwner == msg.sender;\n    }\n\n    /********************************************************************************************/\n    /* CONTRACT FUNCTIONS\n    /********************************************************************************************/\n\n    /**\n     * @dev Add an airline to the registration queue\n     */\n    function registerAirline(address airline, string memory name)\n        external\n        isRegisteredAirline\n        requireFundedAirline\n        returns (bool success, uint256 votes)\n    {\n        require(\n            airlineQueue[airline][msg.sender] == false,\n            \"Airline already voted\"\n        );\n\n        votes = 0;\n        success = false;\n        uint256 numRegisteredAirlines =\n            flightSuretyData.getNumRegisteredAirlines();\n\n        if (numRegisteredAirlines <= MULTIPARTY_CONSENSUS_THRESHOLD) {\n            flightSuretyData.registerAirline(msg.sender, airline, name);\n            success = true;\n        } else {\n            airlineQueue[airline][msg.sender] = true;\n            votes = airlineQueueVotes[airline].add(1);\n\n            if (votes <= numRegisteredAirlines.div(2)) {\n                airlineQueueVotes[airline] = votes;\n            } else {\n                flightSuretyData.registerAirline(msg.sender, airline, name);\n                success = true;\n            }\n        }\n\n        if (success) {\n            emit AirlineRegistered(airline);\n        }\n\n        return (success, 0);\n    }\n\n    /**\n     * @dev Register a future flight for insuring.\n     */\n    function registerFlight(string memory flight, uint256 timestamp)\n        external\n        requireFundedAirline\n    {\n        bytes32 flightKey = getFlightKey(msg.sender, flight, timestamp);\n\n        flightSuretyData.registerFlight(flightKey, timestamp, msg.sender);\n\n        emit FlightRegistered(flight, timestamp, msg.sender);\n    }\n\n    /**\n     * @dev Called after oracle has updated flight status\n     */\n    function processFlightStatus(\n        address airline,\n        string memory flight,\n        uint256 timestamp,\n        uint8 statusCode\n    )\n        internal\n        requireExistingFlight(airline, flight, timestamp)\n        returns (bytes32 flightKey)\n    {\n        flightKey = getFlightKey(airline, flight, timestamp);\n\n        flightSuretyData.updateFlight(flightKey, statusCode);\n\n        return (flightKey);\n    }\n\n    /**\n     * @dev Generate a request for oracles to fetch flight information\n     */\n    function fetchFlightStatus(\n        address airline,\n        string memory flight,\n        uint256 timestamp\n    ) external requireExistingFlight(airline, flight, timestamp) {\n        uint8 index = getRandomIndex(msg.sender);\n\n        // Generate a unique key for storing the request\n        bytes32 key =\n            keccak256(abi.encodePacked(index, airline, flight, timestamp));\n\n        ResponseInfo storage responseInfo = oracleResponses[key];\n\n        responseInfo.requester = msg.sender;\n        responseInfo.isOpen = true;\n\n        emit OracleRequest(index, airline, flight, timestamp);\n    }\n\n    function buyInsurance(\n        address airline,\n        string memory flight,\n        uint256 timestamp\n    ) public payable requireExistingFlight(airline, flight, timestamp) {\n        address passenger = msg.sender;\n\n        bytes32 flightKey = getFlightKey(airline, flight, timestamp);\n\n        flightSuretyData.buyInsurance(passenger, flightKey, msg.value);\n\n        emit InsuranceBought(flight, timestamp, passenger);\n    }\n\n    /********************************************************************************************/\n    /*                                     ORACLE MANAGEMENT                                    */\n    /********************************************************************************************/\n\n    // Incremented to add pseudo-randomness at various points\n    uint8 private nonce = 0;\n\n    // Fee to be paid when registering oracle\n    uint256 public constant REGISTRATION_FEE = 1 ether;\n\n    // Number of oracles that must respond for valid status\n    uint256 private constant MIN_RESPONSES = 3;\n\n    struct Oracle {\n        bool isRegistered;\n        uint8[3] indexes;\n    }\n\n    // Track all registered oracles\n    mapping(address => Oracle) private oracles;\n\n    // Model for responses from oracles\n    struct ResponseInfo {\n        address requester; // Account that requested status\n        bool isOpen; // If open, oracle responses are accepted\n        mapping(uint8 => address[]) responses; // Mapping key is the status code reported\n        // This lets us group responses and identify\n        // the response that majority of the oracles\n    }\n\n    // Track all oracle responses\n    // Key = hash(index, flight, timestamp)\n    mapping(bytes32 => ResponseInfo) private oracleResponses;\n\n    // Event fired each time an oracle submits a response\n    event FlightStatusInfo(\n        address airline,\n        string flight,\n        uint256 timestamp,\n        uint8 status\n    );\n\n    event OracleRegistered(uint8[3] indexes);\n\n    event OracleReport(\n        address airline,\n        string flight,\n        uint256 timestamp,\n        uint8 status\n    );\n\n    // Event fired when flight status request is submitted\n    // Oracles track this and if they have a matching index\n    // they fetch data and submit a response\n    event OracleRequest(\n        uint8 index,\n        address airline,\n        string flight,\n        uint256 timestamp\n    );\n\n    // Register an oracle with the contract\n    function registerOracle() external payable {\n        // Require registration fee\n        require(msg.value >= REGISTRATION_FEE, \"Registration fee is required\");\n\n        uint8[3] memory indexes = generateIndexes(msg.sender);\n\n        oracles[msg.sender] = Oracle({isRegistered: true, indexes: indexes});\n\n        emit OracleRegistered(indexes);\n    }\n\n    function getMyIndexes() external view returns (uint8[3] memory) {\n        require(\n            oracles[msg.sender].isRegistered,\n            \"Not registered as an oracle\"\n        );\n\n        return oracles[msg.sender].indexes;\n    }\n\n    // Called by oracle when a response is available to an outstanding request\n    // For the response to be accepted, there must be a pending request that is open\n    // and matches one of the three Indexes randomly assigned to the oracle at the\n    // time of registration (i.e. uninvited oracles are not welcome)\n    function submitOracleResponse(\n        uint8 index,\n        address airline,\n        string memory flight,\n        uint256 timestamp,\n        uint8 statusCode\n    ) external {\n        require(\n            (oracles[msg.sender].indexes[0] == index) ||\n                (oracles[msg.sender].indexes[1] == index) ||\n                (oracles[msg.sender].indexes[2] == index),\n            \"Index does not match oracle request\"\n        );\n\n        bytes32 key =\n            keccak256(abi.encodePacked(index, airline, flight, timestamp));\n\n        require(\n            oracleResponses[key].isOpen,\n            \"Flight or timestamp do not match oracle request\"\n        );\n\n        oracleResponses[key].responses[statusCode].push(msg.sender);\n\n        // Information isn't considered verified until at least MIN_RESPONSES\n        // oracles respond with the *** same *** information\n        emit OracleReport(airline, flight, timestamp, statusCode);\n        if (\n            oracleResponses[key].responses[statusCode].length >= MIN_RESPONSES\n        ) {\n            oracleResponses[key].isOpen = false;\n\n            emit FlightStatusInfo(airline, flight, timestamp, statusCode);\n\n            // Handle flight status as appropriate\n            processFlightStatus(airline, flight, timestamp, statusCode);\n        }\n    }\n\n    function getFlightKey(\n        address airline,\n        string memory flight,\n        uint256 timestamp\n    ) internal pure returns (bytes32) {\n        return keccak256(abi.encodePacked(airline, flight, timestamp));\n    }\n\n    function getInsuranceKey(\n        address airline,\n        string memory flight,\n        uint256 timestamp\n    ) internal pure returns (bytes32) {\n        return keccak256(abi.encodePacked(airline, flight, timestamp));\n    }\n\n    // Returns array of three non-duplicating integers from 0-9\n    function generateIndexes(address account)\n        internal\n        returns (uint8[3] memory)\n    {\n        uint8[3] memory indexes;\n        indexes[0] = getRandomIndex(account);\n\n        indexes[1] = indexes[0];\n        while (indexes[1] == indexes[0]) {\n            indexes[1] = getRandomIndex(account);\n        }\n\n        indexes[2] = indexes[1];\n        while ((indexes[2] == indexes[0]) || (indexes[2] == indexes[1])) {\n            indexes[2] = getRandomIndex(account);\n        }\n\n        return indexes;\n    }\n\n    // Returns array of three non-duplicating integers from 0-9\n    function getRandomIndex(address account) internal returns (uint8) {\n        uint8 maxValue = 10;\n\n        // Pseudo random number...the incrementing nonce adds variation\n        uint8 random =\n            uint8(\n                uint256(\n                    keccak256(\n                        abi.encodePacked(\n                            blockhash(block.number - nonce++),\n                            account\n                        )\n                    )\n                ) % maxValue\n            );\n\n        if (nonce > 250) {\n            nonce = 0; // Can only fetch blockhashes for last 256 blocks so we adapt\n        }\n\n        return random;\n    }\n}\n",
    "sourcePath": "/Users/gerrethalberstadt/Development/Udacity-Blockchain/_self/_3/contracts/FlightSuretyApp.sol",
    "compiler": {
        "name": "solc",
        "version": "0.7.4+commit.3f05b770.Emscripten.clang"
    },
    "schemaVersion": "3.3.3",
    "updatedAt": "2021-02-13T07:34:02.407Z",
    "networkType": "ethereum",
    "devdoc": {
        "kind": "dev",
        "methods": {
            "constructor": {
                "details": "Contract constructor"
            },
            "fetchFlightStatus(address,string,uint256)": {
                "details": "Generate a request for oracles to fetch flight information"
            },
            "registerAirline(address,string)": {
                "details": "Add an airline to the registration queue"
            },
            "registerFlight(string,uint256)": {
                "details": "Register a future flight for insuring."
            }
        },
        "version": 1
    },
    "userdoc": {
        "kind": "user",
        "methods": {},
        "version": 1
    }
}