{
  "contractName": "FlightSuretyData",
  "abi": [
    {
      "inputs": [
        {
          "internalType": "address",
          "name": "airline",
          "type": "address"
        },
        {
          "internalType": "string",
          "name": "name",
          "type": "string"
        }
      ],
      "stateMutability": "nonpayable",
      "type": "constructor"
    },
    {
      "stateMutability": "payable",
      "type": "fallback",
      "payable": true
    },
    {
      "inputs": [
        {
          "internalType": "address",
          "name": "appContract",
          "type": "address"
        }
      ],
      "name": "authorizeContract",
      "outputs": [],
      "stateMutability": "nonpayable",
      "type": "function"
    },
    {
      "inputs": [
        {
          "internalType": "address",
          "name": "appContract",
          "type": "address"
        }
      ],
      "name": "deauthorizedContract",
      "outputs": [],
      "stateMutability": "nonpayable",
      "type": "function"
    },
    {
      "stateMutability": "payable",
      "type": "receive",
      "payable": true
    },
    {
      "inputs": [
        {
          "internalType": "address",
          "name": "airline",
          "type": "address"
        }
      ],
      "name": "isRegisteredAirline",
      "outputs": [
        {
          "internalType": "bool",
          "name": "",
          "type": "bool"
        }
      ],
      "stateMutability": "view",
      "type": "function",
      "constant": true
    },
    {
      "inputs": [],
      "name": "isOperational",
      "outputs": [
        {
          "internalType": "bool",
          "name": "",
          "type": "bool"
        }
      ],
      "stateMutability": "view",
      "type": "function",
      "constant": true
    },
    {
      "inputs": [
        {
          "internalType": "address",
          "name": "airline",
          "type": "address"
        }
      ],
      "name": "isFundedAirline",
      "outputs": [
        {
          "internalType": "bool",
          "name": "",
          "type": "bool"
        }
      ],
      "stateMutability": "view",
      "type": "function",
      "constant": true
    },
    {
      "inputs": [
        {
          "internalType": "bytes32",
          "name": "flightKey",
          "type": "bytes32"
        }
      ],
      "name": "isExistingFlight",
      "outputs": [
        {
          "internalType": "bool",
          "name": "",
          "type": "bool"
        }
      ],
      "stateMutability": "view",
      "type": "function",
      "constant": true
    },
    {
      "inputs": [],
      "name": "getNumRegisteredAirlines",
      "outputs": [
        {
          "internalType": "uint256",
          "name": "",
          "type": "uint256"
        }
      ],
      "stateMutability": "view",
      "type": "function",
      "constant": true
    },
    {
      "inputs": [
        {
          "internalType": "bool",
          "name": "mode",
          "type": "bool"
        }
      ],
      "name": "setOperatingStatus",
      "outputs": [],
      "stateMutability": "nonpayable",
      "type": "function"
    },
    {
      "inputs": [
        {
          "internalType": "address",
          "name": "airline",
          "type": "address"
        }
      ],
      "name": "getAirline",
      "outputs": [
        {
          "internalType": "address",
          "name": "id",
          "type": "address"
        },
        {
          "internalType": "string",
          "name": "name",
          "type": "string"
        },
        {
          "internalType": "bool",
          "name": "isFunded",
          "type": "bool"
        },
        {
          "internalType": "uint256",
          "name": "funds",
          "type": "uint256"
        }
      ],
      "stateMutability": "view",
      "type": "function",
      "constant": true
    },
    {
      "inputs": [
        {
          "internalType": "address",
          "name": "caller",
          "type": "address"
        },
        {
          "internalType": "address",
          "name": "airline",
          "type": "address"
        },
        {
          "internalType": "string",
          "name": "name",
          "type": "string"
        }
      ],
      "name": "registerAirline",
      "outputs": [],
      "stateMutability": "nonpayable",
      "type": "function"
    },
    {
      "inputs": [
        {
          "internalType": "bytes32",
          "name": "flightKey",
          "type": "bytes32"
        },
        {
          "internalType": "uint256",
          "name": "timestamp",
          "type": "uint256"
        },
        {
          "internalType": "address",
          "name": "airline",
          "type": "address"
        }
      ],
      "name": "registerFlight",
      "outputs": [],
      "stateMutability": "nonpayable",
      "type": "function"
    },
    {
      "inputs": [
        {
          "internalType": "bytes32",
          "name": "flightKey",
          "type": "bytes32"
        },
        {
          "internalType": "uint8",
          "name": "statusCode",
          "type": "uint8"
        }
      ],
      "name": "updateFlight",
      "outputs": [],
      "stateMutability": "nonpayable",
      "type": "function"
    },
    {
      "inputs": [
        {
          "internalType": "address",
          "name": "airline",
          "type": "address"
        },
        {
          "internalType": "string",
          "name": "flightName",
          "type": "string"
        },
        {
          "internalType": "uint256",
          "name": "timestamp",
          "type": "uint256"
        }
      ],
      "name": "getFlight",
      "outputs": [
        {
          "internalType": "uint8",
          "name": "statusCode",
          "type": "uint8"
        }
      ],
      "stateMutability": "view",
      "type": "function",
      "constant": true
    },
    {
      "inputs": [
        {
          "internalType": "address",
          "name": "caller",
          "type": "address"
        },
        {
          "internalType": "bytes32",
          "name": "flightKey",
          "type": "bytes32"
        },
        {
          "internalType": "uint256",
          "name": "amount",
          "type": "uint256"
        }
      ],
      "name": "buyInsurance",
      "outputs": [],
      "stateMutability": "nonpayable",
      "type": "function"
    },
    {
      "inputs": [],
      "name": "getCredit",
      "outputs": [
        {
          "internalType": "uint256",
          "name": "",
          "type": "uint256"
        }
      ],
      "stateMutability": "view",
      "type": "function",
      "constant": true
    },
    {
      "inputs": [],
      "name": "pay",
      "outputs": [],
      "stateMutability": "payable",
      "type": "function",
      "payable": true
    },
    {
      "inputs": [],
      "name": "fund",
      "outputs": [],
      "stateMutability": "payable",
      "type": "function",
      "payable": true
    }
  ],
  "bytecode": "0x60806040526001600260006101000a81548160ff0219169083151502179055506000600460006101000a81548161ffff021916908361ffff1602179055503480156200004a57600080fd5b506040516200296838038062002968833981810160405260408110156200007057600080fd5b8101908080519060200190929190805160405193929190846401000000008211156200009b57600080fd5b83820191506020820185811115620000b257600080fd5b8251866001820283011164010000000082111715620000d057600080fd5b8083526020830192505050908051906020019080838360005b8381101562000106578082015181840152602081019050620000e9565b50505050905090810190601f168015620001345780820380516001836020036101000a031916815260200191505b50604052505050336000806101000a81548173ffffffffffffffffffffffffffffffffffffffff021916908373ffffffffffffffffffffffffffffffffffffffff1602179055506000600560008473ffffffffffffffffffffffffffffffffffffffff1673ffffffffffffffffffffffffffffffffffffffff1681526020019081526020016000209050828160000160006101000a81548173ffffffffffffffffffffffffffffffffffffffff021916908373ffffffffffffffffffffffffffffffffffffffff160217905550818160010190805190602001906200021b92919062000256565b506001600460008282829054906101000a900461ffff160192506101000a81548161ffff021916908361ffff1602179055505050506200030c565b828054600181600116156101000203166002900490600052602060002090601f0160209004810192826200028e5760008555620002da565b82601f10620002a957805160ff1916838001178555620002da565b82800160010185558215620002da579182015b82811115620002d9578251825591602001919060010190620002bc565b5b509050620002e99190620002ed565b5090565b5b8082111562000308576000816000905550600101620002ee565b5090565b61264c806200031c6000396000f3fe6080604052600436106101025760003560e01c80638b2226a011610095578063cd905dff11610064578063cd905dff146105a7578063e1de0489146105d4578063eaae3cc0146106cb578063f3ba4e1b14610730578063ff2d04e21461079757610109565b80638b2226a014610494578063a78d9799146104e5578063a7c8c06c1461054c578063b60d42881461059d57610109565b806353775a96116100d157806353775a96146102c757806359296e7b146103d05780635ff13d61146103fb57806367561d931461044357610109565b8063110466ed146101135780631b9265b8146101505780633010f50f1461015a5780634f829e371461026257610109565b3661010957005b6101116107c2565b005b34801561011f57600080fd5b5061014e6004803603602081101561013657600080fd5b810190808035151590602001909291905050506108d9565b005b6101586109b7565b005b34801561016657600080fd5b506102606004803603606081101561017d57600080fd5b81019080803573ffffffffffffffffffffffffffffffffffffffff169060200190929190803573ffffffffffffffffffffffffffffffffffffffff169060200190929190803590602001906401000000008111156101da57600080fd5b8201836020820111156101ec57600080fd5b8035906020019184600183028401116401000000008311171561020e57600080fd5b91908080601f016020809104026020016040519081016040528093929190818152602001838380828437600081840152601f19601f820116905080830192505050505050509192919290505050610b50565b005b34801561026e57600080fd5b506102c56004803603606081101561028557600080fd5b81019080803573ffffffffffffffffffffffffffffffffffffffff1690602001909291908035906020019092919080359060200190929190505050610d93565b005b3480156102d357600080fd5b506103b7600480360360608110156102ea57600080fd5b81019080803573ffffffffffffffffffffffffffffffffffffffff1690602001909291908035906020019064010000000081111561032757600080fd5b82018360208201111561033957600080fd5b8035906020019184600183028401116401000000008311171561035b57600080fd5b91908080601f016020809104026020016040519081016040528093929190818152602001838380828437600081840152601f19601f82011690508083019250505050505050919291929080359060200190929190505050611194565b604051808260ff16815260200191505060405180910390f35b3480156103dc57600080fd5b506103e56112da565b6040518082815260200191505060405180910390f35b34801561040757600080fd5b506104416004803603604081101561041e57600080fd5b8101908080359060200190929190803560ff169060200190929190505050611321565b005b34801561044f57600080fd5b506104926004803603602081101561046657600080fd5b81019080803573ffffffffffffffffffffffffffffffffffffffff1690602001909291905050506114a3565b005b3480156104a057600080fd5b506104e3600480360360208110156104b757600080fd5b81019080803573ffffffffffffffffffffffffffffffffffffffff1690602001909291905050506115be565b005b3480156104f157600080fd5b506105346004803603602081101561050857600080fd5b81019080803573ffffffffffffffffffffffffffffffffffffffff1690602001909291905050506116d1565b60405180821515815260200191505060405180910390f35b34801561055857600080fd5b506105856004803603602081101561056f57600080fd5b8101908080359060200190929190505050611833565b60405180821515815260200191505060405180910390f35b6105a56107c2565b005b3480156105b357600080fd5b506105bc611860565b60405180821515815260200191505060405180910390f35b3480156105e057600080fd5b50610623600480360360208110156105f757600080fd5b81019080803573ffffffffffffffffffffffffffffffffffffffff169060200190929190505050611877565b604051808573ffffffffffffffffffffffffffffffffffffffff168152602001806020018415158152602001838152602001828103825285818151815260200191508051906020019080838360005b8381101561068d578082015181840152602081019050610672565b50505050905090810190601f1680156106ba5780820380516001836020036101000a031916815260200191505b509550505050505060405180910390f35b3480156106d757600080fd5b5061072e600480360360608110156106ee57600080fd5b810190808035906020019092919080359060200190929190803573ffffffffffffffffffffffffffffffffffffffff169060200190929190505050611a13565b005b34801561073c57600080fd5b5061077f6004803603602081101561075357600080fd5b81019080803573ffffffffffffffffffffffffffffffffffffffff169060200190929190505050611c35565b60405180821515815260200191505060405180910390f35b3480156107a357600080fd5b506107ac611ce7565b6040518082815260200191505060405180910390f35b6000600560003373ffffffffffffffffffffffffffffffffffffffff1673ffffffffffffffffffffffffffffffffffffffff16815260200190815260200160002060030154905060003490506108218183611dc990919063ffffffff16565b915081600560003373ffffffffffffffffffffffffffffffffffffffff1673ffffffffffffffffffffffffffffffffffffffff16815260200190815260200160002060030181905550678ac7230489e8000082106108d5576001600560003373ffffffffffffffffffffffffffffffffffffffff1673ffffffffffffffffffffffffffffffffffffffff16815260200190815260200160002060020160006101000a81548160ff0219169083151502179055505b5050565b60008054906101000a900473ffffffffffffffffffffffffffffffffffffffff1673ffffffffffffffffffffffffffffffffffffffff163373ffffffffffffffffffffffffffffffffffffffff161461099a576040517f08c379a000000000000000000000000000000000000000000000000000000000815260040180806020018281038252601c8152602001807f43616c6c6572206973206e6f7420636f6e7472616374206f776e65720000000081525060200191505060405180910390fd5b80600260006101000a81548160ff02191690831515021790555050565b6000600960003373ffffffffffffffffffffffffffffffffffffffff1673ffffffffffffffffffffffffffffffffffffffff16815260200190815260200160002054905060008111610a71576040517f08c379a00000000000000000000000000000000000000000000000000000000081526004018080602001828103825260148152602001807f4e6f2066756e647320746f207472616e7366657200000000000000000000000081525060200191505060405180910390fd5b610ac381600960003373ffffffffffffffffffffffffffffffffffffffff1673ffffffffffffffffffffffffffffffffffffffff16815260200190815260200160002054611e5190919063ffffffff16565b600960003373ffffffffffffffffffffffffffffffffffffffff1673ffffffffffffffffffffffffffffffffffffffff168152602001908152602001600020819055503373ffffffffffffffffffffffffffffffffffffffff166108fc829081150290604051600060405180830381858888f19350505050158015610b4c573d6000803e3d6000fd5b5050565b60011515600160003373ffffffffffffffffffffffffffffffffffffffff1673ffffffffffffffffffffffffffffffffffffffff16815260200190815260200160002060009054906101000a900460ff16151514610c16576040517f08c379a00000000000000000000000000000000000000000000000000000000081526004018080602001828103825260188152602001807f43616c6c6572206973206e6f7420617574686f72697a6564000000000000000081525060200191505060405180910390fd5b82600560008273ffffffffffffffffffffffffffffffffffffffff1673ffffffffffffffffffffffffffffffffffffffff16815260200190815260200160002060020160009054906101000a900460ff16610cbc576040517f08c379a00000000000000000000000000000000000000000000000000000000081526004018080602001828103825260288152602001806125846028913960400191505060405180910390fd5b6000600560008573ffffffffffffffffffffffffffffffffffffffff1673ffffffffffffffffffffffffffffffffffffffff1681526020019081526020016000209050838160000160006101000a81548173ffffffffffffffffffffffffffffffffffffffff021916908373ffffffffffffffffffffffffffffffffffffffff16021790555082816001019080519060200190610d5a929190612455565b506001600460008282829054906101000a900461ffff160192506101000a81548161ffff021916908361ffff1602179055505050505050565b600260009054906101000a900460ff16610df8576040517f08c379a00000000000000000000000000000000000000000000000000000000081526004018080602001828103825260258152602001806125f26025913960400191505060405180910390fd5b60011515600160003373ffffffffffffffffffffffffffffffffffffffff1673ffffffffffffffffffffffffffffffffffffffff16815260200190815260200160002060009054906101000a900460ff16151514610ebe576040517f08c379a00000000000000000000000000000000000000000000000000000000081526004018080602001828103825260188152602001807f43616c6c6572206973206e6f7420617574686f72697a6564000000000000000081525060200191505060405180910390fd5b82600073ffffffffffffffffffffffffffffffffffffffff16600560008373ffffffffffffffffffffffffffffffffffffffff1673ffffffffffffffffffffffffffffffffffffffff16815260200190815260200160002060000160009054906101000a900473ffffffffffffffffffffffffffffffffffffffff1673ffffffffffffffffffffffffffffffffffffffff1614610fa6576040517f08c379a00000000000000000000000000000000000000000000000000000000081526004018080602001828103825260288152602001806125846028913960400191505060405180910390fd5b6000821161101c576040517f08c379a00000000000000000000000000000000000000000000000000000000081526004018080602001828103825260208152602001807f50617373656e676572206e6565647320746f2070726f7669646520657468657281525060200191505060405180910390fd5b60006008600085815260200190815260200160002060008673ffffffffffffffffffffffffffffffffffffffff1673ffffffffffffffffffffffffffffffffffffffff16815260200190815260200160002054146110c5576040517f08c379a00000000000000000000000000000000000000000000000000000000081526004018080602001828103825260258152602001806125ac6025913960400191505060405180910390fd5b816008600085815260200190815260200160002060008673ffffffffffffffffffffffffffffffffffffffff1673ffffffffffffffffffffffffffffffffffffffff1681526020019081526020016000208190555060076000848152602001908152602001600020849080600181540180825580915050600190039060005260206000200160009091909190916101000a81548173ffffffffffffffffffffffffffffffffffffffff021916908373ffffffffffffffffffffffffffffffffffffffff16021790555050505050565b6000600260009054906101000a900460ff166111fb576040517f08c379a00000000000000000000000000000000000000000000000000000000081526004018080602001828103825260258152602001806125f26025913960400191505060405180910390fd5b6000611208858585611e9b565b90506112126124e3565b600660008381526020019081526020016000206040518060800160405290816000820160009054906101000a900460ff161515151581526020016000820160019054906101000a900460ff1660ff1660ff168152602001600182015481526020016002820160009054906101000a900473ffffffffffffffffffffffffffffffffffffffff1673ffffffffffffffffffffffffffffffffffffffff1673ffffffffffffffffffffffffffffffffffffffff168152505090508060200151925050509392505050565b6000600960003373ffffffffffffffffffffffffffffffffffffffff1673ffffffffffffffffffffffffffffffffffffffff16815260200190815260200160002054905090565b600260009054906101000a900460ff16611386576040517f08c379a00000000000000000000000000000000000000000000000000000000081526004018080602001828103825260258152602001806125f26025913960400191505060405180910390fd5b60011515600160003373ffffffffffffffffffffffffffffffffffffffff1673ffffffffffffffffffffffffffffffffffffffff16815260200190815260200160002060009054906101000a900460ff1615151461144c576040517f08c379a00000000000000000000000000000000000000000000000000000000081526004018080602001828103825260188152602001807f43616c6c6572206973206e6f7420617574686f72697a6564000000000000000081525060200191505060405180910390fd5b806006600084815260200190815260200160002060000160016101000a81548160ff021916908360ff16021790555042600660008481526020019081526020016000206001018190555061149f82611f41565b5050565b60008054906101000a900473ffffffffffffffffffffffffffffffffffffffff1673ffffffffffffffffffffffffffffffffffffffff163373ffffffffffffffffffffffffffffffffffffffff1614611564576040517f08c379a000000000000000000000000000000000000000000000000000000000815260040180806020018281038252601c8152602001807f43616c6c6572206973206e6f7420636f6e7472616374206f776e65720000000081525060200191505060405180910390fd5b60018060008373ffffffffffffffffffffffffffffffffffffffff1673ffffffffffffffffffffffffffffffffffffffff16815260200190815260200160002060006101000a81548160ff02191690831515021790555050565b60008054906101000a900473ffffffffffffffffffffffffffffffffffffffff1673ffffffffffffffffffffffffffffffffffffffff163373ffffffffffffffffffffffffffffffffffffffff161461167f576040517f08c379a000000000000000000000000000000000000000000000000000000000815260040180806020018281038252601c8152602001807f43616c6c6572206973206e6f7420636f6e7472616374206f776e65720000000081525060200191505060405180910390fd5b600160008273ffffffffffffffffffffffffffffffffffffffff1673ffffffffffffffffffffffffffffffffffffffff16815260200190815260200160002060006101000a81549060ff021916905550565b600060011515600160003373ffffffffffffffffffffffffffffffffffffffff1673ffffffffffffffffffffffffffffffffffffffff16815260200190815260200160002060009054906101000a900460ff16151514611799576040517f08c379a00000000000000000000000000000000000000000000000000000000081526004018080602001828103825260188152602001807f43616c6c6572206973206e6f7420617574686f72697a6564000000000000000081525060200191505060405180910390fd5b600073ffffffffffffffffffffffffffffffffffffffff16600560008473ffffffffffffffffffffffffffffffffffffffff1673ffffffffffffffffffffffffffffffffffffffff16815260200190815260200160002060000160009054906101000a900473ffffffffffffffffffffffffffffffffffffffff1673ffffffffffffffffffffffffffffffffffffffff1614159050919050565b60006006600083815260200190815260200160002060000160009054906101000a900460ff169050919050565b6000600260009054906101000a900460ff16905090565b60006060600080611886612526565b600560008773ffffffffffffffffffffffffffffffffffffffff1673ffffffffffffffffffffffffffffffffffffffff1681526020019081526020016000206040518060800160405290816000820160009054906101000a900473ffffffffffffffffffffffffffffffffffffffff1673ffffffffffffffffffffffffffffffffffffffff1673ffffffffffffffffffffffffffffffffffffffff168152602001600182018054600181600116156101000203166002900480601f0160208091040260200160405190810160405280929190818152602001828054600181600116156101000203166002900480156119bf5780601f10611994576101008083540402835291602001916119bf565b820191906000526020600020905b8154815290600101906020018083116119a257829003601f168201915b505050505081526020016002820160009054906101000a900460ff16151515158152602001600382015481525050905080600001519450806020015193508060400151925080606001519150509193509193565b600260009054906101000a900460ff16611a78576040517f08c379a00000000000000000000000000000000000000000000000000000000081526004018080602001828103825260258152602001806125f26025913960400191505060405180910390fd5b60011515600160003373ffffffffffffffffffffffffffffffffffffffff1673ffffffffffffffffffffffffffffffffffffffff16815260200190815260200160002060009054906101000a900460ff16151514611b3e576040517f08c379a00000000000000000000000000000000000000000000000000000000081526004018080602001828103825260188152602001807f43616c6c6572206973206e6f7420617574686f72697a6564000000000000000081525060200191505060405180910390fd5b611b466124e3565b6040518060800160405280600115158152602001600060ff1681526020018481526020018373ffffffffffffffffffffffffffffffffffffffff168152509050806006600086815260200190815260200160002060008201518160000160006101000a81548160ff02191690831515021790555060208201518160000160016101000a81548160ff021916908360ff1602179055506040820151816001015560608201518160020160006101000a81548173ffffffffffffffffffffffffffffffffffffffff021916908373ffffffffffffffffffffffffffffffffffffffff16021790555090505050505050565b600081600560008273ffffffffffffffffffffffffffffffffffffffff1673ffffffffffffffffffffffffffffffffffffffff16815260200190815260200160002060020160009054906101000a900460ff16611cdd576040517f08c379a00000000000000000000000000000000000000000000000000000000081526004018080602001828103825260288152602001806125846028913960400191505060405180910390fd5b6001915050919050565b600060011515600160003373ffffffffffffffffffffffffffffffffffffffff1673ffffffffffffffffffffffffffffffffffffffff16815260200190815260200160002060009054906101000a900460ff16151514611daf576040517f08c379a00000000000000000000000000000000000000000000000000000000081526004018080602001828103825260188152602001807f43616c6c6572206973206e6f7420617574686f72697a6564000000000000000081525060200191505060405180910390fd5b600460009054906101000a900461ffff1661ffff16905090565b600080828401905083811015611e47576040517f08c379a000000000000000000000000000000000000000000000000000000000815260040180806020018281038252601b8152602001807f536166654d6174683a206164646974696f6e206f766572666c6f77000000000081525060200191505060405180910390fd5b8091505092915050565b6000611e9383836040518060400160405280601e81526020017f536166654d6174683a207375627472616374696f6e206f766572666c6f7700008152506121ff565b905092915050565b6000838383604051602001808473ffffffffffffffffffffffffffffffffffffffff1660601b815260140183805190602001908083835b60208310611ef55780518252602082019150602081019050602083039250611ed2565b6001836020036101000a03801982511681845116808217855250505050505090500182815260200193505050506040516020818303038152906040528051906020012090509392505050565b606060076000838152602001908152602001600020805480602002602001604051908101604052809291908181526020018280548015611fd657602002820191906000526020600020905b8160009054906101000a900473ffffffffffffffffffffffffffffffffffffffff1673ffffffffffffffffffffffffffffffffffffffff1681526020019060010190808311611f8c575b5050505050905060005b81518110156121fa576000828281518110611ff757fe5b6020026020010151905060006008600086815260200190815260200160002060008373ffffffffffffffffffffffffffffffffffffffff1673ffffffffffffffffffffffffffffffffffffffff168152602001908152602001600020549050600081116120cc576040517f08c379a000000000000000000000000000000000000000000000000000000000815260040180806020018281038252601a8152602001807f496e737572616e636520616c726561647920637265646974656400000000000081525060200191505060405180910390fd5b61212f816008600088815260200190815260200160002060008573ffffffffffffffffffffffffffffffffffffffff1673ffffffffffffffffffffffffffffffffffffffff16815260200190815260200160002054611e5190919063ffffffff16565b506121a861215a600261214c6003856122bf90919063ffffffff16565b61234590919063ffffffff16565b600960008573ffffffffffffffffffffffffffffffffffffffff1673ffffffffffffffffffffffffffffffffffffffff16815260200190815260200160002054611dc990919063ffffffff16565b600960008473ffffffffffffffffffffffffffffffffffffffff1673ffffffffffffffffffffffffffffffffffffffff1681526020019081526020016000208190555050508080600101915050611fe0565b505050565b60008383111582906122ac576040517f08c379a00000000000000000000000000000000000000000000000000000000081526004018080602001828103825283818151815260200191508051906020019080838360005b83811015612271578082015181840152602081019050612256565b50505050905090810190601f16801561229e5780820380516001836020036101000a031916815260200191505b509250505060405180910390fd5b5060008385039050809150509392505050565b6000808314156122d2576000905061233f565b60008284029050828482816122e357fe5b041461233a576040517f08c379a00000000000000000000000000000000000000000000000000000000081526004018080602001828103825260218152602001806125d16021913960400191505060405180910390fd5b809150505b92915050565b600061238783836040518060400160405280601a81526020017f536166654d6174683a206469766973696f6e206279207a65726f00000000000081525061238f565b905092915050565b6000808311829061243b576040517f08c379a00000000000000000000000000000000000000000000000000000000081526004018080602001828103825283818151815260200191508051906020019080838360005b838110156124005780820151818401526020810190506123e5565b50505050905090810190601f16801561242d5780820380516001836020036101000a031916815260200191505b509250505060405180910390fd5b50600083858161244757fe5b049050809150509392505050565b828054600181600116156101000203166002900490600052602060002090601f01602090048101928261248b57600085556124d2565b82601f106124a457805160ff19168380011785556124d2565b828001600101855582156124d2579182015b828111156124d15782518255916020019190600101906124b6565b5b5090506124df9190612566565b5090565b6040518060800160405280600015158152602001600060ff16815260200160008152602001600073ffffffffffffffffffffffffffffffffffffffff1681525090565b6040518060800160405280600073ffffffffffffffffffffffffffffffffffffffff16815260200160608152602001600015158152602001600081525090565b5b8082111561257f576000816000905550600101612567565b509056fe416c7265616479206e65656420746f2062652066756e64656420746f20706172746963697061746550617373656e67657220616c726561647920626f7567687420616e20696e737572616e6365536166654d6174683a206d756c7469706c69636174696f6e206f766572666c6f77436f6e74726163742069732063757272656e746c79206e6f74206f7065726174696f6e616ca26469706673582212200ff5eff3784600c00b2715ce9e1e15f7ce6c3a9c66ce4d8610a8fef5451cb8bc64736f6c63430007040033",
  "immutableReferences": {},
  "source": "// SPDX-License-Identifier: MIT\npragma solidity ^0.7.4;\n\nimport \"../node_modules/openzeppelin-solidity/contracts/math/SafeMath.sol\";\n\nimport \"./FlightSuretyDataAuthorization.sol\";\n\ncontract FlightSuretyData is FlightSuretyDataAuthorization {\n    using SafeMath for uint256;\n\n    /********************************************************************************************/\n    /* DATA VARIABLES\n    /********************************************************************************************/\n\n    bool private operational = true; // Blocks all state changes throughout the contract if false\n\n    struct Airline {\n        address id;\n        string name;\n        bool isFunded;\n        uint256 funds;\n    }\n\n    struct Flight {\n        bool isRegistered;\n        uint8 statusCode;\n        uint256 updatedTimestamp;\n        address airline;\n    }\n\n    mapping(address => bool) private authorizedContracts;\n\n    uint16 numRegisteredAirlines = 0;\n    mapping(address => Airline) private airlines;\n\n    // Flight status codees\n    uint8 private constant STATUS_CODE_UNKNOWN = 0;\n    uint8 private constant STATUS_CODE_ON_TIME = 10;\n    uint8 private constant STATUS_CODE_LATE_AIRLINE = 20;\n    uint8 private constant STATUS_CODE_LATE_WEATHER = 30;\n    uint8 private constant STATUS_CODE_LATE_TECHNICAL = 40;\n    uint8 private constant STATUS_CODE_LATE_OTHER = 50;\n\n    mapping(bytes32 => Flight) private flights;\n\n    mapping(bytes32 => address[]) private insuranceHolders;\n    mapping(bytes32 => mapping(address => uint256)) private insurances;\n    mapping(address => uint256) private insuranceCredits;\n\n    /********************************************************************************************/\n    /* EVENT DEFINITIONS\n    /********************************************************************************************/\n\n    /********************************************************************************************/\n    /* CONSTRUCTOR\n    /********************************************************************************************/\n\n    /**\n     * @dev The deploying account becomes contractOwner\n     */\n    constructor(address airline, string memory name) {\n        // contractOwner = msg.sender;\n        // Register first airline when contract is deployed\n        Airline storage newAirline = airlines[airline];\n        newAirline.id = airline;\n        newAirline.name = name;\n\n        numRegisteredAirlines += 1;\n    }\n\n    /********************************************************************************************/\n    /* MODIFIERS\n    /********************************************************************************************/\n\n    /**\n     * @dev Modifier that requires the \"operational\" boolean variable to be \"true\"\n     *      This is used on all state changing functions to pause the contract in\n     *      the event there is an issue that needs to be fixed\n     */\n    modifier requireIsOperational() {\n        require(operational, \"Contract is currently not operational\");\n        _; // All modifiers require an \"_\" which indicates where the function body will be added\n    }\n\n    /**\n     * @dev Modifier that requires ...\n     */\n    modifier requireFundedAirline(address caller) {\n        require(\n            airlines[caller].isFunded,\n            \"Already need to be funded to participate\"\n        );\n        _;\n    }\n\n    /**\n     * @dev Modifier that requires ...\n     */\n    modifier requireNotAirline(address caller) {\n        require(\n            airlines[caller].id ==\n                address(0x0000000000000000000000000000000000000000),\n            \"Already need to be funded to participate\"\n        );\n        _;\n    }\n\n    /********************************************************************************************/\n    /* UTILITY FUNCTIONS\n    /********************************************************************************************/\n\n    /**\n     * @dev Get operating status of contract\n     *\n     * @return A bool that is the current operating status\n     */\n    function isRegisteredAirline(address airline)\n        public\n        view\n        requireAuthorizedContract\n        returns (bool)\n    {\n        return\n            airlines[airline].id !=\n            address(0x0000000000000000000000000000000000000000);\n    }\n\n    /**\n     * @dev Get operating status of contract\n     *\n     * @return A bool that is the current operating status\n     */\n    // requireAuthorizedContract\n    function isOperational() public view returns (bool) {\n        return operational;\n    }\n\n    function isFundedAirline(address airline)\n        external\n        view\n        requireFundedAirline(airline)\n        returns (bool)\n    {\n        return true;\n    }\n\n    function isExistingFlight(bytes32 flightKey) external view returns (bool) {\n        return flights[flightKey].isRegistered;\n    }\n\n    /**\n     * @dev ...\n     */\n    function getNumRegisteredAirlines()\n        external\n        view\n        requireAuthorizedContract\n        returns (uint256)\n    {\n        return numRegisteredAirlines;\n    }\n\n    /********************************************************************************************/\n    /* CONTRACT FUNCTIONS\n    /********************************************************************************************/\n\n    /**\n     * @dev Sets contract operations on/off\n     *\n     * When operational mode is disabled, all write transactions except for this one will fail\n     */\n    function setOperatingStatus(bool mode) external requireContractOwner {\n        operational = mode;\n    }\n\n    /**\n     * @dev Add an airline to the registration queue\n     *      Can only be called from FlightSuretyApp contract\n     */\n    function getAirline(address airline)\n        external\n        view\n        returns (\n            address id,\n            string memory name,\n            bool isFunded,\n            uint256 funds\n        )\n    {\n        Airline memory currentAirline = airlines[airline];\n\n        id = currentAirline.id;\n        name = currentAirline.name;\n        isFunded = currentAirline.isFunded;\n        funds = currentAirline.funds;\n\n        return (id, name, isFunded, funds);\n    }\n\n    /**\n     * @dev Add an airline to the registration queue\n     *      Can only be called from FlightSuretyApp contract\n     */\n    function registerAirline(\n        address caller,\n        address airline,\n        string memory name\n    ) external requireAuthorizedContract requireFundedAirline(caller) {\n        Airline storage newAirline = airlines[airline];\n        newAirline.id = airline;\n        newAirline.name = name;\n\n        numRegisteredAirlines += 1;\n    }\n\n    function registerFlight(\n        bytes32 flightKey,\n        uint256 timestamp,\n        address airline\n    ) external requireIsOperational requireAuthorizedContract {\n        Flight memory newFlight =\n            Flight(true, STATUS_CODE_UNKNOWN, timestamp, airline);\n        flights[flightKey] = newFlight;\n    }\n\n    function updateFlight(bytes32 flightKey, uint8 statusCode)\n        external\n        requireIsOperational\n        requireAuthorizedContract\n    {\n        flights[flightKey].statusCode = statusCode;\n        flights[flightKey].updatedTimestamp = block.timestamp;\n\n        // if (statusCode == STATUS_CODE_LATE_AIRLINE) {\n        creditInsurees(flightKey);\n        // }\n    }\n\n    function getFlight(\n        address airline,\n        string memory flightName,\n        uint256 timestamp\n    ) external view requireIsOperational returns (uint8 statusCode) {\n        bytes32 flightKey = getFlightKey(airline, flightName, timestamp);\n\n        Flight memory flight = flights[flightKey];\n\n        statusCode = flight.statusCode;\n\n        return (statusCode);\n    }\n\n    /**\n     * @dev Buy insurance for a flight\n     */\n    function buyInsurance(\n        address caller,\n        bytes32 flightKey,\n        uint256 amount\n    )\n        external\n        requireIsOperational\n        requireAuthorizedContract\n        requireNotAirline(caller)\n    {\n        require(amount > 0, \"Passenger needs to provide ether\");\n        require(\n            insurances[flightKey][caller] == 0,\n            \"Passenger already bought an insurance\"\n        );\n        insurances[flightKey][caller] = amount;\n        insuranceHolders[flightKey].push(caller);\n    }\n\n    /**\n     *  @dev Credits payouts to insurees\n     */\n    function creditInsurees(bytes32 flightKey) internal {\n        address[] memory insurees = insuranceHolders[flightKey];\n\n        for (uint256 i = 0; i < insurees.length; i++) {\n            address account = insurees[i];\n            uint256 amount = insurances[flightKey][account];\n\n            require(amount > 0, \"Insurance already credited\");\n\n            insurances[flightKey][account].sub(amount);\n            insuranceCredits[account] = insuranceCredits[account].add(\n                amount.mul(3).div(2)\n            );\n        }\n    }\n\n    function getCredit() external view returns (uint256) {\n        return insuranceCredits[msg.sender];\n    }\n\n    /**\n     *  @dev Transfers eligible payout funds to insuree\n     */\n    function pay() external payable {\n        uint256 amount = insuranceCredits[msg.sender];\n\n        require(amount > 0, \"No funds to transfer\");\n\n        insuranceCredits[msg.sender] = insuranceCredits[msg.sender].sub(amount);\n\n        msg.sender.transfer(amount);\n    }\n\n    /**\n     * @dev Initial funding for the insurance. Unless there are too many delayed flights\n     *      resulting in insurance payouts, the contract should be self-sustaining\n     */\n    function fund() public payable {\n        uint256 funds = airlines[msg.sender].funds;\n\n        uint256 amount = msg.value;\n\n        // transfer(amount);\n\n        funds = funds.add(amount);\n\n        airlines[msg.sender].funds = funds;\n\n        if (funds >= 10 ether) {\n            airlines[msg.sender].isFunded = true;\n        }\n    }\n\n    function getFlightKey(\n        address airline,\n        string memory flight,\n        uint256 timestamp\n    ) internal pure returns (bytes32) {\n        return keccak256(abi.encodePacked(airline, flight, timestamp));\n    }\n\n    /**\n     * @dev Fallback function for funding smart contract.\n     */\n    receive() external payable {}\n\n    /**\n     * @dev Fallback function for funding smart contract.\n     */\n    fallback() external payable {\n        fund();\n    }\n}\n",
  "sourcePath": "/Users/gerrethalberstadt/Development/Udacity-Blockchain/_self/_3/contracts/FlightSuretyData.sol",
  "compiler": {
    "name": "solc",
    "version": "0.7.4+commit.3f05b770.Emscripten.clang"
  },
  "schemaVersion": "3.3.3",
  "updatedAt": "2021-02-13T07:34:02.421Z",
  "networkType": "ethereum",
  "devdoc": {
    "kind": "dev",
    "methods": {
      "authorizeContract(address)": {
        "details": "Authorize app contract"
      },
      "buyInsurance(address,bytes32,uint256)": {
        "details": "Buy insurance for a flight"
      },
      "constructor": {
        "details": "The deploying account becomes contractOwner"
      },
      "deauthorizedContract(address)": {
        "details": "Authorize app contract"
      },
      "fund()": {
        "details": "Initial funding for the insurance. Unless there are too many delayed flights      resulting in insurance payouts, the contract should be self-sustaining"
      },
      "getAirline(address)": {
        "details": "Add an airline to the registration queue      Can only be called from FlightSuretyApp contract"
      },
      "getNumRegisteredAirlines()": {
        "details": "..."
      },
      "isOperational()": {
        "details": "Get operating status of contract",
        "returns": {
          "_0": "A bool that is the current operating status"
        }
      },
      "isRegisteredAirline(address)": {
        "details": "Get operating status of contract",
        "returns": {
          "_0": "A bool that is the current operating status"
        }
      },
      "pay()": {
        "details": "Transfers eligible payout funds to insuree"
      },
      "registerAirline(address,address,string)": {
        "details": "Add an airline to the registration queue      Can only be called from FlightSuretyApp contract"
      },
      "setOperatingStatus(bool)": {
        "details": "Sets contract operations on/off When operational mode is disabled, all write transactions except for this one will fail"
      }
    },
    "version": 1
  },
  "userdoc": {
    "kind": "user",
    "methods": {},
    "version": 1
  }
}